:10000000000001203D020000950200009702000060
:10001000990200009B0200009D0200000000000009
:100020000000000000000000000000009F0200002F
:10003000A102000000000000A3020000A5020000D1
:10004000DD2B0000AB020000453A000055340000F3
:10005000B1020000B30200000D490000B702000029
:100060004D400000654000007D400000BF020000E0
:10007000C1020000C3020000C5020000C702000068
:10008000C9020000CB020000CD020000CF02000038
:10009000D1020000D3020000D5020000D702000008
:1000A000D9020000DB02000095400000AD400000D6
:1000B000E1020000E3020000A7020000A702000026
:1000C000E5020000E7020000E9020000EB02000088
:0C00D000ED020000EF020000F102000051
:1000DC00364937480A1A02D0072291438D463549D2
:1000EC0035480A1A06D00722914381F30988022267
:1000FC0082F3148831483249324A00F045F83248CC
:10010C003249334A00F040F832483349334A00F060
:10011C003BF833483349344A00F036F83348344915
:10012C00344A00F031F834483449354A00F02CF8A0
:10013C0034483549354A00F027F83548354900220E
:10014C0000F02DF834483549002200F028F83448E6
:10015C003449091A082903DB0022026004300160CB
:10016C00314A90471F482049884205D00268043024
:10017C0003B4904703BCF7E700208646EC4600200A
:10018C0000212A4A9047FEE7884207D0521A05D030
:10019C00037801300B700131013AF9D17047884274
:1001AC0002D002700130FAE7704700000000012015
:1001BC0000F8002000000120000001205C13020068
:1001CC0060000020C0000020F4020000F4020000D7
:1001DC00607000005C1302006000002060000020D2
:1001EC00007100000071000000710000007100003F
:1001FC00007100000071000000710000007100002F
:10020C005C130200BC130200C0000020C0000020E0
:10021C00C00000206809002068090020680900203F
:10022C0068090020680B002061020000295A0000B8
:10023C000F484FF00701884385460E4880470E480B
:10024C00016841F470010160BFF34F8FBFF36F8FF2
:10025C00FFF73EBF09480A490A4A884207D0521A9A
:10026C0005D0037801300B700131013AF9D1704798
:10027C0000000120C55E000088ED00E0A0700000C9
:10028C000000002060000020FEE7FEE7FEE7FEE72E
:10029C00FEE7FEE7FEE7FEE7FEE7FEE7FEE7FEE72A
:1002AC00FEE7FEE7FEE7FEE7FEE7FEE7FEE7FEE71A
:1002BC00FEE7FEE7FEE7FEE7FEE7FEE7FEE7FEE70A
:1002CC00FEE7FEE7FEE7FEE7FEE7FEE7FEE7FEE7FA
:1002DC00FEE7FEE7FEE7FEE7FEE7FEE7FEE7FEE7EA
:0802EC00FEE7FEE7FEE700BF9C
:1002F40084B00190244B0393019B002B40D0234BEB
:100304001A680399019B00BF00BF00BF00BF00BF74
:1003140000BF00BF00BF8A422FD000BF00BF00BF94
:1003240000BF00BF00BF00BF00BF00BF00BF00BFD1
:1003340000BF00BF00BF00BF00BF00BF00BF00BFC1
:1003440000BF00BF00BF00BF00BF00BF00BF00BFB1
:1003540000BF00BF00BF00BF00BF00BF00BF00BFA1
:1003640000BF00BF00BF00BF00BF00BF00BF00BF91
:1003740000BF00BF00BF00BF00BF013BC3D101935A
:1003840000BF04B0704700BF0024F400B400002094
:1003940000B583B00190019B4FF47A7202FB03F322
:1003A4001846FFF7A5FF00BF03B05DF804FB00008B
:1003B40000B583B00190019B1B681F2B04D905492C
:1003C4004FF4E87001F001F94FF0A043184603B070
:1003D4005DF804FB0071000000B585B0019008468B
:1003E40011461A4603468DF803300B468DF8023049
:1003F40013468DF8013001AB1846FFF7D9FF03907F
:100404009DF803209DF802305B001A439DF80130EB
:100414009B001A439DF818301B0242EA03019DF821
:100424001C301B04019A1943039B02F5E07243F844
:10043400221000BF05B05DF804FB00B585B0039041
:100444000023019300230093002301220121039838
:10045400FFF7C2FF00BF05B05DF804FB00B585B02F
:10046400019001AB1846FFF7A3FF0390019B012203
:1004740002FA03F31946039800F018F800BF05B018
:100484005DF804FB00B585B0019001AB1846FFF799
:100494008FFF0390019B012202FA03F3194603988C
:1004A40000F00EF800BF05B05DF804FB82B00190C7
:1004B4000091019B009AC3F8082500BF02B0704761
:1004C40082B001900091019B009AC3F80C2500BFF3
:1004D40002B0704700B587B003900291104B1B78AF
:1004E400002B07D0029B9BB2039A1946002006F00A
:1004F400D9F811E0029BDAB2002300930023039998
:10050400084802F09DFD0590059B002B04D0064A87
:100514009B21059800F02EFF00BF07B05DF804FB97
:10052400C0000020B07100003871000000B583B035
:1005340003468DF807301320FFF7A4FF0DF10703DE
:1005440001211846FFF7C6FF00BF03B05DF804FBA6
:1005540000B583B003468DF807301320FFF77EFF04
:100564000DF1070301211846FFF7B4FF00BF03B0E4
:100574005DF804FB00B583B001900B46ADF8023082
:100584001320FFF76BFFBDF8023019460198FFF7FF
:10059400A1FF00BF03B05DF804FB000010B582B0FA
:1005A4000446084611461A462346ADF8063003466B
:1005B400ADF804300B46ADF802301346ADF8003008
:1005C400BDF80620BDF802309A4203D92849BD205F
:1005D40000F0FBFFBDF80420BDF800309A4203D9B7
:1005E4002349BE2000F0F1FF2A20FFF79FFFBDF84A
:1005F40006301B0A9BB2DBB21846FFF7A9FFBDF811
:100604000630DBB21846FFF7A3FFBDF802301B0A21
:100614009BB2DBB21846FFF79BFFBDF80230DBB29A
:100624001846FFF795FF2B20FFF780FFBDF8043035
:100634001B0A9BB2DBB21846FFF78AFFBDF80430F1
:10064400DBB21846FFF784FFBDF800301B0A9BB2EB
:10065400DBB21846FFF77CFFBDF80030DBB218466A
:10066400FFF776FF2C20FFF761FF00BF02B010BD3B
:100674003871000008B50120FFF758FF7D20FFF70F
:1006840087FE1120FFF752FF9620FFF781FE3620E8
:10069400FFF74CFF0820FFF75BFF3A20FFF746FF08
:1006A4005520FFF755FFC620FFF740FF0120FFF755
:1006B4004FFFE020FFF73AFFD020FFF749FF00206B
:1006C400FFF746FF0520FFF743FF0E20FFF740FF2B
:1006D4001520FFF73DFF0D20FFF73AFF3720FFF706
:1006E40037FF4320FFF734FF4720FFF731FF09208E
:1006F400FFF72EFF1520FFF72BFF1220FFF728FF2F
:100704001620FFF725FF0920FFF722FFE120FFF75E
:100714000DFFD020FFF71CFF0020FFF719FF052075
:10072400FFF716FF0D20FFF713FF0C20FFF710FF54
:100734000620FFF70DFF2D20FFF70AFF4420FFF7E7
:1007440007FF4020FFF704FF0E20FFF701FF1C20E6
:10075400FFF7FEFE1820FFF7FBFE1620FFF7F8FE5A
:100764001920FFF7F5FE2120FFF7E0FE2920FFF70F
:10077400DDFE00BF08BD000000B585B01320FFF703
:100784005CFE01AB00221A609A809DF804300222BC
:1007940062F342038DF8043080238DF80530192369
:1007A4008DF8063017238DF8073018238DF808309C
:1007B40016238DF8093001AB1946002005F0EEFE32
:1007C40003460393074B01221A70039B002B02D0AC
:1007D4000023039301E00D230393039B184605B004
:1007E4005DF804FBC000002000B583B0FFF7C4FF30
:1007F4000190019B002B01D0019B02E0FFF73AFF1F
:10080400019B184603B05DF804FB000008B50248DC
:1008140002F0BEFB00BF08BDB071000000B585B09A
:1008240003460092ADF806300B46ADF80430BDF82F
:100834000430BDF80620BDF80410BDF80600FFF72B
:10084400ADFE009B1B0ADBB28DF80C30009BDBB2C3
:100854008DF80D3003AB02211846FFF78BFE00BF65
:1008640005B05DF804FB000010B584B004460846EA
:1008740011461A462346ADF806300346ADF8043057
:100884000B46ADF802301346ADF80030BDF8062033
:10089400BDF8023013449BB2013B9CB2BDF8042066
:1008A400BDF8003013449BB2013B9BB2BDF8041069
:1008B400BDF806002246FFF771FE069B1B0ADBB259
:1008C4008DF80830069BDBB28DF809301320FFF752
:1008D400C5FDBDF80030BDF8022002FB03F3073369
:1008E400002B00DA0733DB100393BDF80030BDF8AA
:1008F400022002FB03F35A4203F0070302F007024B
:1009040058BF5342072B42D801A252F823F000BF2C
:10091400370900007D09000073090000690900001F
:100924005F090000550900004B090000410900005F
:1009340000BF02AB02211846FFF7CCFD02AB022137
:100944001846FFF7C7FD02AB02211846FFF7C2FDA8
:1009540002AB02211846FFF7BDFD02AB0221184687
:10096400FFF7B8FD02AB02211846FFF7B3FD02AB57
:1009740002211846FFF7AEFD02AB02211846FFF72D
:10098400A9FD039B013B0393039B002BD0D100BF24
:100994001320FFF777FD00BF04B010BD00B583B08E
:1009A4000190084611461A460346ADF802300B463C
:1009B4008DF8013013468DF80030BDF802304FF643
:1009C400FF7293420ED19DF8013098B29DF8003029
:1009D40099B29DF810309AB29DF814309BB2FFF78B
:1009E400DDFD05E0BDF8023019460198FFF7C2FDB0
:1009F40000BF03B05DF804FB00B583B003468DF877
:100A040007303620FFF792FD9DF8073003F003030B
:100A1400032B1BD801A252F823F000BF310A0000B7
:100A2400390A0000410A0000490A0000C020FFF70B
:100A34008FFD0CE02020FFF78BFD08E00020FFF77E
:100A440087FD04E06020FFF783FD00E000BF00BFE6
:100A540003B05DF804FB00BF00B583B003468DF816
:100A640007309DF80730002B01D0212300E020231C
:100A74001846FFF75BFD00BF03B05DF804FB82B0CE
:100A84004FF0FF33019300BF02B0704700B583B04D
:100A940001900091019B1B681B680099019898477D
:100AA40000BF03B05DF804FB00B583B00190019B67
:100AB4001B685B680198984700BF03B05DF804FBAE
:100AC40082B00190019B01225A7200BF02B07047AC
:100AD40082B00190019B5B7A184602B0704710B453
:100AE40087B001900091019B009A53E8004F44EABB
:100AF400020043E8000191F0000FF6D10594049040
:100B04000391049B184607B05DF8044B704710B47A
:100B140087B001900091019B009A53E8004F04EACA
:100B2400020043E8000191F0000FF6D1059404900F
:100B34000391059B184607B05DF8044B704700B558
:100B440083B0019001210198FFF7C9FF03461846BD
:100B540003B05DF804FB00B583B001900021019857
:100B6400FFF7D5FF0346184603B05DF804FB000009
:100B740000B587B001901F4BFF229A601D4B0022E5
:100B84001A601C4B00225A601A4B0022C3F8182426
:100B9400184B0022C3F81424164B002283F81C249B
:100BA400154801F015FE0490049B002B01D0049B12
:100BB4001CE0124A124BD31ADB080393002305935B
:100BC4000FE0059A13465B0013449B001A460D4B35
:100BD40013440293059B9AB2029B1A80059B01332E
:100BE4000593059A039B9A42EBD30023184607B05A
:100BF4005DF804FB94010020D8710000A07000008F
:100C04006070000000000020024A034BD31ADB0886
:100C140018467047A07000006070000000B589B0ED
:100C24004148FFF78CFF4148FFF789FF404B5B6861
:100C340007933F4B9B680493079A049B134002332A
:100C44009B003B4A1344043306931BE0079B013388
:100C54000793069B5B88C3F389139BB21A46069BD2
:100C64001B88C3F389139BB213441A46079B13448E
:100C74000793079A049B134002339B002C4A1344A6
:100C840004330693069B1B7803F00303DBB2002BAB
:100C9400DCD00023059311E0079B5A1C0792049AA9
:100CA4001340059A920069460A44214902339B0085
:100CB4000B445B681360059B01330593059B012B73
:100CC400EAD99DF80030C3F30103DBB2012B0CD049
:100CD400022B14D1BDF80230C3F389139BB2033342
:100CE4009B08079A134407930FE0BDF80030C3F341
:100CF4008313DBB21A46079B1344079305E00D499F
:100D040040F24D1000F061FC00BF0848FFF723FFDC
:100D14000390039B002B02D0054A079B536000BF3E
:100D240009B05DF804FB00BFAC050020A805002055
:100D340094010020FC71000010B586B0039002916C
:100D440001920093039B1B0CADF81630BDF81640BE
:100D5400FFF75AFF03469C4204D323494FF4B27071
:100D640000F033FC009B5A1C089B1340BDF816206E
:100D74001E4902339B000B445A60009A089B13409F
:100D840002339B00194A134404330493039B1B0945
:100D940003F00103D9B2049A137861F38203137048
:100DA400039B03F00703D9B2049A137861F3C503D4
:100DB4001370019B03F00F03D9B2049A138861F3F3
:100DC40089131380029BC3F31501049A136861F31A
:100DD4009F231360049A1378012161F301031370B4
:100DE40000BF06B010BD00BFFC71000094010020DC
:100DF40000B589B001900091019B02330693022350
:100E0400059301238DF81330002000F097FB214B4C
:100E14001A68009B1A601F4B9A681E4B59681D4B39
:100E24001B68CB1A134401330793069A059B13449A
:100E340003930BE0FFF7F2FE164B9A68154B5968C3
:100E4400144B1B68CB1A134401330793039A079B73
:100E54009A42EFD80F4B1A680E4B9B68134002332B
:100E64009B000C4A134404330293029A137843F010
:100E740003031370074B1A68069B1344054A136057
:100E8400002000F06FFB9DF81330184609B05DF8A0
:100E940004FB00BF9401002000B58BB005900491C1
:100EA400039202931F4B9B68079306AB1946029863
:100EB400FFF79EFF0346002B24D0069B02330993C1
:100EC4000023089311E0089B9B00039A1A44099B92
:100ED400591C099107990B401268124902339B006F
:100EE4000B445A60089B01330893089A029B9A4268
:100EF400E9D3069A079B00931346029A049905982E
:100F0400FFF71AFF074B93F81C34002B05D000BFE2
:100F140000F056F80346002BFAD100BF0BB05DF881
:100F240004FB00BF9401002000B587B00390029138
:100F34000192019B059305AA012302990398FFF7E7
:100F4400ABFF00BF07B05DF804FB00B587B00390AA
:100F5400029101920093019B0493009B059304AAC0
:100F6400022302990398FFF797FF00BF07B05DF8CB
:100F740004FB00B589B00390029101920093019B98
:100F84000493009B05930A9B06930B9B079304AA67
:100F9400042302990398FFF77FFF00BF09B05DF8AF
:100FA40004FB0000054B5A68044B1B689A420CBFB3
:100FB40001230023DBB21846704700BF94010020D0
:100FC40000B597B0FFF7EEFF0346002B01D00023D6
:100FD400ABE1AB4B0022C3F81824BFF34F8FA84BEF
:100FE4005B681593A64B9B680E93159A0E9B134052
:100FF40002339B00A24A1344043314930023139333
:101004000023129300230D931BE0159B01331593CA
:10101400149B5B88C3F389139BB21A46149B1B88E9
:10102400C3F389139BB213441A46159B13441593B7
:10103400159A0E9B134002339B00914A13440433C8
:101044001493149B1B7803F00303DBB2002BDCD056
:101054000023119311E0159B5A1C15920E9A13400C
:10106400119A920069460A44854902339B000B4455
:101074005B681360119B01331193119B012BEAD917
:101084009DF8003003F00303DBB2022B40F09C8098
:10109400BDF80230C3F389139BB20B93BDF8023041
:1010A400C3F389139BB2502B28BF50239BB20A93DE
:1010B4000A9BC3F309039AB2BDF8023062F38F139B
:1010C400ADF802300A9B083309939DF80030C3F34E
:1010D400C203DBB20D9309996A4801F084FB1390B3
:1010E400139B002B00F0E080139801F00CFC694680
:1010F400129B0822139801F0AFFC129B0833129341
:10110400159BDA430E9B134001339B0008930A9A04
:10111400089B9A4242D9089B002B08D0159A0E9B33
:10112400134002339B00564A1344043300E0564BE9
:101134000693089B002B02D0089BDBB201E00A9BBC
:10114400DBB28DF81730089B002B01D04E4B00E02A
:1011540000230493089B002B06D00A9BDAB2089B59
:10116400DBB2D31ADBB200E000238DF80F309DF818
:101174001720129B0699139801F06EFC9DF8173006
:10118400129A13441293049B002B16D09DF80F203F
:10119400129B0499139801F05FFC0EE0159A0E9BC4
:1011A400134002339B00364A134404330793129BC3
:1011B4000A9A0799139801F04FFC0B9B03339B0881
:1011C400159A134415936FE09DF8003003F0030360
:1011D400DBB2012B5AD1BDF80030C3F38313DBB269
:1011E400062B28BF0623DAB2BDF8003062F3891358
:1011F400ADF80030BDF80030C3F38313DBB2023323
:101204000C939DF80030C3F3C203DBB20D930C9B27
:101214009B0019461B4801F0E6FA1390139B002B20
:1012240042D0139801F06FFB6946129B0822139871
:1012340001F012FC129B083312930023119314E063
:10124400159B5A1C15920E9A134002339B000C4AAC
:101254001344191D129B0422139801F0FDFB129BE9
:1012640004331293119B01331193BDF80030C3F37F
:101274008313DBB21A46119B9342E1D314E000BFFF
:1012840094010020D8710000A00100209DF80030D6
:1012940003F00303DBB2032B06D1264BD3F8183437
:1012A400002B01D1002340E0139B002B37D0214BAE
:1012B400D3F8103410931F4BD3F81834002B1AD0E2
:1012C400139801F02FFB2AE000238DF83F3010988B
:1012D400FFF7FEFB0346002B02D001238DF83F30BD
:1012E4009DF83F30002B03D013991098FFF7CEFBE5
:1012F400109B5B681093109B002BE5D1139801F0B1
:1013040011FB002000F01AF90A4BD3F81834002B13
:1013140002D1084A159B5360002000F023F9FFF71F
:1013240041FE034683F00103DBB2184617B05DF8B3
:1013340004FB00BF9401002000B583B00C4BD3F82C
:10134400103401930A4B012283F81C2408E001980D
:10135400FFF7B6FB0198FFF7A7FB019B5B680193BE
:10136400019B002BF3D100BF03B05DF804FB00BF69
:101374009401002000B589B0039002910192029B70
:101384009BB2ADF81430019B0693039B079305AB06
:101394001A46002144F2010000F050F800BF09B0E1
:1013A4005DF804FB86B003900291019201238DF84D
:1013B40017309DF81730204A039B13601E4A029B86
:1013C40053601D4A019B9360039B44F201029342C4
:1013D40012D044F20202934222D1019B164AD360F6
:1013E400154BDB681B881A46134B9A61124BDB685A
:1013F4005B68114AD36113E0019B0F4A13610E4BE2
:101404001B699B680C4A53610B4B1B691B881A466A
:10141400094B9A61084B1B695B68074AD36100BF9B
:1014240072B600BF9DF81730DBB2002BFAD162B65A
:1014340000BF06B0704700BFB405002030B589B0C6
:10144400059004910392FFF777FF00BFFFF7B8FD03
:101454000346002BFAD1059B44F20102934213D0B8
:1014640044F2020293422DD1039B0793224B1B8823
:101474001B0443F00100079B5B681A46079B1B880B
:101484001E49FFF762FD28E0039B06931A4B1B8855
:101494001B0443F00104069B9D68069B9B68184649
:1014A40001F0ECFA03461946069B5B681A46069B54
:1014B4001B88019300920B462A4611492046FFF7E8
:1014C40058FD0AE00C4B1B881B0443F00103049AEB
:1014D4000C491846FFF728FD00BF0B4B1B6803F0AF
:1014E4000103002B00D0FFDE039A04990598FFF74F
:1014F40059FF00BF09B030BD000000207072000029
:101504008C720000A4720000F0ED00E072B6034B90
:101514001B680133014A136000BF7047D4050020E3
:10152400054B1B68013B044A1360034B1B68002BEB
:1015340000D162B600BF7047D405002000B583B067
:10154400019000F025F80346012B03D00449432001
:1015540000F03BF8FFF7DAFF00BF03B05DF804FBCF
:10156400BC72000000B583B003468DF8073000F06C
:101574000FF80346012B03D00449512000F025F84D
:10158400FFF7CEFF00BF03B05DF804FBBC720000A0
:1015940084B0EFF305830193019BC3F30803039322
:1015A400039B002B0DD1EFF314830093009B029354
:1015B400029B03F00103002B0CBF01230023DBB2C9
:1015C40000E00123184604B0704700B585B0034617
:1015D4000091ADF80630BDF80630ADF80830009B38
:1015E400039302AB1A46002144F20200FFF726FFE0
:1015F40000BF05B05DF804FB00B583B001900B4655
:101604008DF80330019B002B03D10849AF20FFF76D
:10161400DCFF019BDA689DF803300199098A01FB1C
:1016240003F31344184603B05DF804FB2873000069
:1016340000B583B001900091019B002B03D10849B0
:10164400BC20FFF7C2FF009B019AD2689B1A019A43
:10165400128AB3FBF2F3DBB2184603B05DF804FB65
:101664002873000000B585B00190019B002B01D1C7
:101674000E2349E0019B1B68002B03D12449C6209B
:10168400FFF7A3FF019B5B68002B03D12049C72010
:10169400FFF79BFF019B9B68002B03D11C49C820CB
:1016A400FFF793FF019BDB68002B03D11849C92086
:1016B400FFF78BFF019B1B8A002B03D11449CA201F
:1016C400FFF783FF019B9B681A46019B5B68D31A53
:1016D4008DF80F30019B1B68019A52681A6007E06D
:1016E400019B1A681368591C11609DF80F201A7029
:1016F4009DF80F305A1E8DF80F20002BF0D1019B5E
:101704001B6800221A710023184605B05DF804FB1B
:101714002873000000B585B00190019B002B03D114
:101724001C49EC20FFF751FF002303930020FFF72F
:1017340005FF019B1B681A68019B5B689A4220D9CC
:10174400019B1B681A68013A1A601B681B781946CA
:101754000198FFF751FF0390019B9B681A46019B78
:101764001B681B68D31A8DF80B30019B1B681B790F
:101774009DF80B209A4204D9019B1B689DF80B200D
:101784001A710020FFF7EEFE039B184605B05DF8C2
:1017940004FB00BF2873000010B584B001900091D1
:1017A400019B002B04D111494FF48870FFF70DFF02
:1017B400009B002B04D10D4940F21110FFF705FFE7
:1017C400009B03930020FFF7B9FE019B1B681C6874
:1017D400621C1A6003990198FFF72AFF03462370DD
:1017E4000020FFF7BFFE00BF04B010BD2873000047
:1017F40000B587B0039001930B46ADF80A30134649
:10180400ADF80830039800F031FD0346ADF816300A
:10181400039800F017FD0346ADF81430BDF80A2014
:10182400BDF816309A420ED2BDF80820BDF8143027
:101834009A4208D2039B9B68BDF80810BDF80A00C1
:10184400019A984700E000BF07B05DF804FB30B58B
:1018540089B00590084611461A460346ADF8123081
:101864000B46ADF810301346ADF80E30059800F075
:10187400FDFC0346ADF81E30059800F0E3FC03467A
:10188400ADF81C30BDF81220BDF81E309A4234D297
:10189400BDF81020BDF81C309A422ED2BDF80E209F
:1018A400BDF81E10BDF81230CB1A9A4206DDBDF801
:1018B4001E20BDF81230D31AADF80E30BDF830201A
:1018C400BDF81C10BDF81030CB1A9A4206DDBDF8E5
:1018D4001C20BDF81030D31AADF83030059BDC68FD
:1018E400BDF83050BDF80E20BDF81010BDF8120040
:1018F4000D9B00932B46A04700E000BF09B030BD0C
:1019040000B58BB00390084611461A460346ADF85D
:101914000A300B46ADF808301346ADF80630BDF872
:101924000A30ADF82630BDF80830ADF82430BDF8E3
:101934000A20BDF806309A4201D2012301E04FF09B
:10194400FF33ADF81A30BDF80820BDF930309A42A3
:1019540001DA012301E04FF0FF33ADF81830002322
:101964008DF81D30BDF80620BDF80A30D31A18468C
:1019740004F03EFF0346ADF82030BDF93020BDF839
:101984000830D31A184604F033FF0346ADF81E306E
:10199400BDF82420BDF826100D9B0398FFF728FFFF
:1019A400BDF92020BDF91E309A4217DABDF8202077
:1019B400BDF81E305340ADF82030BDF82020BDF8EE
:1019C4001E305340ADF81E30BDF81E20BDF8203047
:1019D4005340ADF8203001238DF81D30BDF91E2091
:1019E400BDF92030D31A9BB25B009BB2ADF8163020
:1019F400BDF81E305B009BB2ADF81430BDF8142066
:101A0400BDF82030D31A9BB2ADF822303DE0BDF9C9
:101A14002230002B16DBBDF81A20BDF82630134403
:101A2400ADF82630BDF81820BDF824301344ADF8C5
:101A34002430BDF82220BDF8163013449BB2ADF813
:101A440022301AE0BDF82220BDF8143013449BB2B2
:101A5400ADF822309DF81D30002B07D0BDF81820BA
:101A6400BDF824301344ADF8243006E0BDF81A2044
:101A7400BDF826301344ADF82630BDF82420BDF857
:101A840026100D9B0398FFF7B3FEBDF82420BDF983
:101A940030309A42BBD1BDF82620BDF806309A42B8
:101AA400B5D100BF0BB05DF804FB00B587B003905F
:101AB4000291009313468DF80730029B5B789DF8E2
:101AC4000720D31A8DF81230029B5A689DF8123001
:101AD4009B0013441B780733002B00DA0733DB1019
:101AE400ADF810309DF80730202B0BD1009B1A88DD
:101AF400029B1B785B08DBB29BB213449AB2009B37
:101B04001A8077E00023ADF8163059E00023ADF8D1
:101B140014304AE000238DF813303DE0029B9B68AB
:101B2400029A51689DF8122092000A445288104685
:101B3400BDF81620BDF8101001FB02F28118BDF8A3
:101B440014200A4413441B781A469DF81330C3F139
:101B5400070342FA03F303F00103002B17D0009BA1
:101B64001A88BDF81430DB009BB213449AB29DF876
:101B740013309BB2134499B2BDF82020BDF816303F
:101B840013449AB2BDF824300398FFF731FE9DF850
:101B9400133001338DF813309DF81330072BBDD962
:101BA400BDF814300133ADF81430BDF81420BDF87D
:101BB40010309A42AED3BDF816300133ADF816306A
:101BC400029B1B789BB2BDF816209A429ED3009BC1
:101BD4001A88029B59689DF812309B000B441B78AD
:101BE40099B2029BDB789BB20B449BB213449AB22A
:101BF400009B1A8007B05DF804FB000000B585B0B7
:101C04000190019B002B03D12E49C620FFF7DDFC78
:101C1400019BDB691B78002B03D02A49C720FFF7FF
:101C2400D4FC019B1B68002B03D12649C820FFF775
:101C3400CCFC019B5B68002B03D12249C920FFF730
:101C4400C4FC019B9B68002B03D11E49CA20FFF7EB
:101C5400BCFC019BDB68002B03D11A49CB20FFF7A6
:101C6400B4FC019B1B69002B03D11649CC20FFF760
:101C7400ACFC019B5B69002B03D11249CD20FFF71B
:101C8400A4FC019B9B69002B03D10E49CE20FFF7D6
:101C94009CFC019BDB69002B03D10A49CF20FFF791
:101CA40094FC019B1B6898470390039B002B03D172
:101CB400019BDB6901221A70039B184605B05DF88D
:101CC40004FB00BF8C73000070B588B005900491CC
:101CD4000392059B002B03D18849F620FFF775FC7E
:101CE400059BDB691B78002B03D18449F720FFF7A0
:101CF4006CFC049B002B03D18049F820FFF765FCA2
:101D04000023ADF81E300023ADF81C30049B1C8862
:101D1400059800F0ABFA03469C4207D9049B9C88C3
:101D2400059800F08FFA03469C420FD8049B5C8808
:101D3400059800F09BFA03469C4209D9049BDC8871
:101D4400059800F07FFA03469C4201D90723D2E0AC
:101D5400049B1B881A46049B9B88D31A184604F0DC
:101D640047FD0446049B5B881A46049BDB88D31A10
:101D7400184604F03DFD03469C4204DD049B1B8988
:101D8400ADF81C3003E0049B1B89ADF81E30049BA6
:101D94001A88049B9B889A4205D0049B5A88049B0A
:101DA400DB889A422BD1049B1C88049B5D88049B8E
:101DB4009B881A46049B1B88D31A184604F018FD06
:101DC40003469AB2BDF81E3013449EB2049BDB88CE
:101DD4001A46049B5B88D31A184604F009FD03468F
:101DE4009AB2BDF81C3013449BB2039A019200933B
:101DF40033462A4621460598FFF729FD7AE0BDF8C7
:101E04001E30002B28D00023ADF81A301DE0049BAF
:101E14001A88BDF81A30134499B2049B5888049B5D
:101E24009A88BDF81A3013449CB2049BDB881BB219
:101E3400039A01920093234602460598FFF760FD3A
:101E4400BDF81A300133ADF81A30049B1B89BDF874
:101E54001A209A42DBD34DE0BDF81C30002B28D069
:101E64000023ADF818301DE0049B1988049B5A88A0
:101E7400BDF81830134498B2049B9C88049BDA88FC
:101E8400BDF8183013449BB21BB2039A019200931D
:101E9400234602460598FFF733FDBDF81830013399
:101EA400ADF81830049B1B89BDF818209A42DBD387
:101EB40020E0049B1A88BDF81E30134499B2049B99
:101EC4005A88BDF81C30134498B2049B9A88BDF814
:101ED4001E3013449CB2049BDA88BDF81C301344B2
:101EE4009BB21BB2039A01920093234602460598C3
:101EF400FFF706FD0023184608B070BD8C73000080
:101F040010B586B00590049111461A460B46ADF8FB
:101F14000E3013468DF80D30059B002B04D10C496F
:101F24004FF4FE70FFF751FB059B1C699DF82000E0
:101F34009DF80D20BDF80E109DF8283001939DF8F2
:101F44002430009303460498A04700BF06B010BD98
:101F54008C73000000B585B001900B468DF80330FA
:101F6400019B002B04D1454940F20320FFF72DFBD0
:101F7400019BDB691B78002B04D140494FF40170AD
:101F8400FFF723FB019BDB699B7903F00103DBB2C1
:101F9400002B14BF012300238DF80F309DF80F3060
:101FA40083F00103DBB2002B04D0019800F04AF95E
:101FB400034603E0019800F059F90346ADF80C30EC
:101FC4009DF80F3083F00103DBB2002B04D001989D
:101FD40000F04CF9034603E0019800F033F903469E
:101FE400ADF80A30019BDB699DF803209A719DF8D6
:101FF4000330032B36D801A252F823F0112000003D
:10200400272000003D20000053200000019BDB69D5
:10201400BDF80C205A80019BDB69BDF80A209A8028
:1020240021E0019BDB69BDF80A205A80019BDB6932
:10203400BDF80C209A8016E0019BDB69BDF80C20EA
:102044005A80019BDB69BDF80A209A800BE0019B52
:10205400DB69BDF80A205A80019BDB69BDF80C20BE
:102064009A8000E000BF019B5B699DF80320104645
:10207400984700BF05B05DF804FB00BF8C730000F7
:1020840010B58AB00590049102931346ADF80E3052
:10209400059B002B04D1694940F23520FFF795FADE
:1020A400059BDB691B78002B04D1644940F2362080
:1020B400FFF78BFA049B002B04D1604940F23720D0
:1020C400FFF783FA029B002B04D15C494FF40E7096
:1020D400FFF77BFA0C9B002B04D1584940F23920BE
:1020E400FFF773FA049B1B88ADF81A30049B5B88D6
:1020F400ADF82630BDF82640059800F0A3F8034655
:102104001A460C9B1B78D31A9C4201DD072391E0ED
:102114000023089382E0029A089B13441B780A2B3D
:1021240016D1049B1B88ADF81A300C9B1B789AB20D
:102134000C9B1B784249A1FB0313DB08DBB29BB267
:1021440013449AB2BDF826301344ADF8263010E09B
:10215400029A089B13441A780DF11A01BDF80E3047
:102164000193BDF8263000930B460C990598FFF7B0
:102174009CFC029A089B13441A780C9B5B78D31A34
:102184008DF81F30029A089B13441B78202B05D12D
:102194000C9B1B785B08DBB29BB207E00C9B5A6874
:1021A4009DF81F309B0013441B789BB2ADF81C3084
:1021B400BDF81A301C46059800F058F803461A4634
:1021C400BDF81C30D31A9C4225DD9DF83430002B19
:1021D4002CD0049B1B88ADF81A300C9B1B789AB248
:1021E4000C9B1B781649A1FB0313DB08DBB29BB2E3
:1021F40013449AB2BDF826301344ADF82630BDF826
:102204002640059800F01EF803461A460C9B1B78DE
:10221400D31A9C420CDC089B01330893029A089B56
:1022240013441B78002B7FF476AF02E000BF00E07C
:1022340000BF002318460AB010BD00BF8C73000015
:10224400CDCCCCCC00B583B00190019B002B04D144
:1022540005494FF41B70FFF7B8F9019BDB695B88F4
:10226400184603B05DF804FB8C73000000B583B01E
:102274000190019B002B04D1054940F27320FFF724
:10228400A4F9019BDB699B88184603B05DF804FB45
:102294008C73000010B58CB007900691049313461C
:1022A4008DF81730069B5B789DF81720D31A8DF8AC
:1022B4002A30069B5A689DF82A309B0013441B78E9
:1022C4000733002B00DA0733DB10ADF828309DF814
:1022D4001730202B0BD1049B1A88069B1B785B08B4
:1022E400DBB29BB213449AB2049B1A80B3E0BDF8EC
:1022F40040301B0A9BB2DBB28DF82430BDF840306D
:10230400DBB28DF82530BDF83C301B0A9BB2DBB242
:102314008DF82030BDF83C30DBB28DF82130049BC1
:102324001B88DCB2BDF83830DBB2049A1288D1B213
:10233400BDF82820D2B2D200D2B20A44D2B2013AB5
:10234400D2B2BDF83810C8B2069909780144C9B2AE
:1023540002910192009323464FF6FF7200210798E1
:10236400FFF7CEFD0023ADF82E305AE00023ADF880
:102374002C304BE000238DF82B303EE0069B9B680D
:10238400069A51689DF82A2092000A445288104601
:10239400BDF82E20BDF8281001FB02F28118BDF80B
:1023A4002C200A4413441B781A469DF82B30C3F1A1
:1023B400070342FA03F303F00103002B0CD009A92D
:1023C400002302930023019300230093002302229D
:1023D4000798FFF795FD0BE008A90023029300235B
:1023E400019300230093002302220798FFF788FD3E
:1023F4009DF82B3001338DF82B309DF82B30072BB3
:10240400BCD9BDF82C300133ADF82C30BDF82C20EC
:10241400BDF828309A42ADD3BDF82E300133ADF863
:102424002E30069B1B789BB2BDF82E209A429DD37A
:10243400049B1A88069B59689DF82A309B000B441C
:102444001B7899B2069BDB789BB20B449BB2134476
:102454009AB2049B1A800CB010BD000010B58CB069
:102464000790069111461A460B46ADF816301346EE
:10247400ADF81430079B002B04D16A4940F2C22006
:10248400FFF7A3F8079BDB691B78002B04D1654990
:1024940040F2C320FFF799F8069B002B04D1614951
:1024A4004FF43170FFF791F80E9B002B04D15D4976
:1024B40040F2C520FFF789F80F9B002B04D159493E
:1024C40040F2C620FFF781F8069B1B88ADF8223046
:1024D400069B5B88ADF82E30BDF82E400798FFF7B9
:1024E400B1FE03461A460F9B1B78D31A9C4201DDAA
:1024F400072394E000230A9385E00E9A0A9B134471
:102504001B780A2B16D1069B1B88ADF822300F9B33
:102514001B789AB20F9B1B784349A1FB0313DB087A
:10252400DBB29BB213449AB2BDF82E301344ADF81B
:102534002E3013E00E9A0A9B13441A780DF12201EF
:10254400BDF814300293BDF816300193BDF82E3057
:1025540000930B460F990798FFF79CFE0E9A0A9B6F
:1025640013441A780F9B5B78D31A8DF827300E9A90
:102574000A9B13441B78202B05D10F9B1B785B0807
:10258400DBB29BB207E00F9B5A689DF827309B0093
:1025940013441B789BB2ADF82430BDF822301C469E
:1025A4000798FFF763FE03461A46BDF82430D31A92
:1025B4009C4225DD9DF84030002B2CD0069B1B88C7
:1025C400ADF822300F9B1B789AB20F9B1B781649EB
:1025D400A1FB0313DB08DBB29BB213449AB2BDF830
:1025E4002E301344ADF82E30BDF82E400798FFF777
:1025F40029FE03461A460F9B1B78D31A9C420CDC17
:102604000A9B01330A930E9A0A9B13441B78002BEE
:102614007FF473AF02E000BF00E000BF0023184660
:102624000CB010BD8C730000CDCCCCCC10B58CB0EC
:10263400079006910592079B002B04D14B4940F269
:10264400FB20FEF7C2FF079BDB691B78002B04D13C
:1026540046494FF43F70FEF7B8FF069B002B04D1A8
:10266400424940F2FD20FEF7B0FF059B002B04D148
:102674003E4940F2FE20FEF7A8FF069B1C880798FF
:10268400FFF7F4FD03469C4207D8069B5C88079835
:10269400FFF7D8FD03469C4201D9072362E00023DB
:1026A400ADF82E30069B1B88DCB2069B5B88DBB240
:1026B400069A1288D1B2069A9288D2B20A44D2B249
:1026C400013AD2B206994988C8B20699C988C9B2F2
:1026D4000144C9B202910192009323464FF6FF725E
:1026E40000210798FFF70CFC00230A9333E0002332
:1026F400099327E0BDF82E305B00059A13441B882C
:102704001B0A9BB2DBB28DF82030BDF82E305B0083
:10271400059A13441B88DBB28DF8213008A90023E5
:1027240002930023019300230093002302220798BD
:10273400FFF7E6FBBDF82E300133ADF82E30099BD0
:1027440001330993069B9B881A46099B9342D1D374
:102754000A9B01330A93069BDB881A460A9B934221
:10276400C5DB002318460CB010BD00BF8C730000FD
:1027740010B487B001900091019B009A53E8004F78
:1027840004EB020043E8000191F0000FF6D1059438
:1027940004900391049B184607B05DF8044B7047FE
:1027A40010B487B001900091019B009A53E8004F48
:1027B400A4EB020043E8000191F0000FF6D1059468
:1027C40004900391049B184607B05DF8044B7047CE
:1027D40000B583B001900198FEF744FF0346184604
:1027E40003B05DF804FB00B58BB001900091019B30
:1027F4001B8A043B0793009A079B1344DA1C079B2C
:10280400B2FBF3F38DF81B300198FEF783FF0590BC
:10281400059B002B01D1002338E0059B00221A718F
:10282400059B01225A71079B9AB2059BDA80059B8E
:1028340009939DF81B30013B0493099B019A1A608C
:10284400002308931DE00198FEF764FF0390039BA7
:10285400002B0ED0059B5B790133DAB2059B5A71CC
:10286400099B039A1A60039B019A1A60039B0993BC
:1028740004E0059800F00EF8002307E0089B0133FC
:102884000893089A049B9A42DDD3059B18460BB023
:102894005DF804FB00B58BB00190019B0793079B87
:1028A4005B798DF81B30019B08939DF81B30013B2D
:1028B40005930023099305E0089B1B680893099B73
:1028C40001330993099A059B9A42F5D3089B1B6827
:1028D4000493019B0893002309930BE0089B1B6856
:1028E400039308990498FEF757FF039B0893099BE9
:1028F400013309939DF81B30099A9A42EED300BF25
:102904000BB05DF804FB00B585B00190019B039307
:10291400039B043301211846FFF72AFF00BF05B0CB
:102924005DF804FB00B587B00190019B0593059BFE
:10293400043301211846FFF733FF0346039303AB27
:102944000493049B1B78002B02D10198FFF7A2FF8C
:1029540000BF07B05DF804FB00B58DB00390029191
:1029640001920093039B0693069BDB880593039BCC
:102974000B93009B1A1D059BB2FBF3F30A93009B78
:102984000433059AB3FBF2F2059901FB02F29B1A98
:102994000993009A019B1A44059B1344DA1C059B76
:1029A400B2FBF3F38DF81330069B5B799DF813208B
:1029B4009A420AD92749BA20FEF707FE05E00B9B85
:1029C4001B680B930A9B013B0A930A9B002BF6D1CD
:1029D40000230893059A099BD31A0793079A019B2E
:1029E400934228BF134607932DE09DF83830002BFF
:1029F4000BD0029A089BD0180B9A099B13440433FA
:102A0400079A194603F016FF0AE00B9A099B134430
:102A1400181D029A089B1344079A194603F00AFFEB
:102A2400002309930B9B1B680B93019A079BD31AF2
:102A34000193089A079B13440893059A019B9342B8
:102A440028BF13460793019B002BCED100BF0DB0C6
:102A54005DF804FBE873000000B587B005900491AD
:102A64000392029300230093029B039A049905980E
:102A7400FFF772FF00BF07B05DF804FB00B585B037
:102A84000190019800F00EF80390039B002B01D0F5
:102A9400039B00E0024B184605B05DF804FB00BF41
:102AA4005474000086B00190164B0593164B0493A2
:102AB4001FE0049A059BD31ADB10DA0F13445B1052
:102AC400DB00059A13440393039B1B680293029A49
:102AD400019B9A4202D9039B04930AE0029A019B48
:102AE4009A4203D2039B0833059302E0039B5B687D
:102AF40004E0059A049B9A42DBD30023184606B0EF
:102B0400704700BF707700006078000082B00190C9
:102B14004FF08042019BC2F8083300BF02B07047F7
:102B240084B00346ADF80630BDF8063003F18043A7
:102B340000221A60BDF8063003F180431B6803933A
:102B4400039B00BF04B0704782B00346ADF8063063
:102B5400BDF8063003F180431B68002B14BF01232A
:102B64000023DBB2184602B0704784B00190019B89
:102B74001B680393039B002B03D0039B1A68019BE0
:102B84001A60039B184604B07047000000B585B076
:102B940003468DF807309DF80730002B02D10C4B0B
:102BA400039301E00B4B03930398FFF7DEFF0290BE
:102BB400029B002B06D0029B5B689DF80720104601
:102BC4009847F1E700BF00BF05B05DF804FB00BF04
:102BD400E0050020E805002008B54FF48070FFF7F9
:102BE400B3FF0346002B0CD04FF48070FFF798FF1F
:102BF4000120FFF78BFF0E4B01225A700020FFF7D4
:102C0400C5FF4FF48270FFF79FFF0346002B0CD0E3
:102C14004FF48270FFF784FF0220FFF777FF044B25
:102C240001229A700120FFF7B1FF00BF08BD00BF69
:102C3400D805002082B003468DF807309DF8073090
:102C440003F01F0205499DF907305B09012000FAD2
:102C540002F241F8232000BF02B0704700E100E017
:102C640082B003468DF807309DF8073003F01F0249
:102C740006499DF907305B09012000FA02F260332E
:102C840041F8232000BF02B0704700BF00E100E01C
:102C940082B0034600918DF807309DF90730002B70
:102CA4000CDA009BDAB20C499DF8073003F00F03ED
:102CB400043B5201D2B20B441A7609E0009BDAB20B
:102CC40006499DF907305201D2B20B4483F8002320
:102CD40000BF02B0704700BF00ED00E000E100E07B
:102CE40000B583B003460A468DF8073013468DF8C5
:102CF40006309DF80630072B04D90D494FF4927025
:102D0400FEF763FC9DF806209DF90730114618462E
:102D1400FFF7BEFF9DF907301846FFF7A1FF9DF9A5
:102D240007301846FFF786FF00BF03B05DF804FBC9
:102D3400CC78000082B003468DF807309DF8073048
:102D440003F01F0206499DF907305B09012000FAD0
:102D540002F2203341F8232000BF02B0704700BFC5
:102D640000E100E082B001900B468DF803309DF83D
:102D74000330019A134401221A6000BF02B0704765
:102D840084B001900B46ADF80230BDF80230019AD0
:102D9400134400221A60BDF80230019A13441B68E0
:102DA4000393039B00BF04B0704782B001900B46AD
:102DB400ADF80230BDF80230019A13441B68002BB1
:102DC40014BF01230023DBB2184602B0704782B05F
:102DD40001900091019B009AC3F8042300BF02B044
:102DE400704782B001900091019B009AC3F80823B8
:102DF40000BF02B0704782B001900091019BD3F8EC
:102E04000423009B1340002B14BF01230023DBB2D7
:102E1400184602B0704782B00190019B0022C3F8AB
:102E2400002500BF02B0704784B00390029113469E
:102E34008DF80730029A039BC3F844259DF80720B8
:102E4400039BC3F8482500BF04B0704784B00390C7
:102E5400029113468DF80730029A039BC3F8342578
:102E64009DF80720039BC3F8382500BF04B07047C2
:102E740082B00190019B0122C3F8502500BF02B02B
:102E8400704782B00190019B0022C3F8502500BF17
:102E940002B0704782B00190019B0122C3F8402523
:102EA40000BF02B0704782B00190019B0022C3F8BA
:102EB400402500BF02B0704700B583B003468DF8CB
:102EC40007309DF907301846FFF734FF00BF03B001
:102ED4005DF804FB82B00190019B03F06043B3F101
:102EE400005F0CBF01230023DBB2184602B0704719
:102EF40000B583B00190019B1B681F2B04D90549C1
:102F04004FF4E870FEF761FB4FF0A043184603B09E
:102F14005DF804FB3479000000B585B0019001AB85
:102F24001846FFF7E5FF0390019B012202FA03F321
:102F34001946039800F018F800BF05B05DF804FBCB
:102F440000B585B0019001AB1846FFF7D1FF03909F
:102F5400019B012202FA03F31946039800F00EF8CC
:102F640000BF05B05DF804FB82B001900091019BA5
:102F7400009AC3F8082500BF02B0704782B00190E0
:102F84000091019B009AC3F80C2500BF02B0704762
:102F940000B585B00190019B5B791A461346DB00AE
:102FA40013449B00244A13440393039B1B7F002B6D
:102FB40004D1224940F23110FEF707FB039B1B6842
:102FC400002B05D0019B93F904301846FFF774FFDA
:102FD400019B1B680293039B1B68002B1CD04FF0C2
:102FE400FF310298FFF7FDFE039B5B7FDBB2002BF2
:102FF40012D014210298FFF7B5FE00BF4FF482717E
:103004000298FFF7D2FE034683F00103DBB2002BE4
:10301400F4D1039B00225A774FF48C710298FFF786
:10302400AFFE0298FFF7F7FE039B00221A7700BF5A
:1030340005B05DF804FB00BFEC05002070790000CA
:1030440000B589B003900291009313468DF80730C0
:10305400029B0493009B06939DF807308DF814306F
:103064009DF828308DF81C3004AB002219460398D3
:1030740000F008F90346184609B05DF804FB00B5F2
:1030840083B00190019B9B7FFF2B04D0019B9B7F0E
:103094001846FFF741FF019B00225A77019B00224B
:1030A4001A72019B1B68019A02F10800019A526886
:1030B4001146984700BF03B05DF804FB00B583B028
:1030C40001900B468DF803309DF8033083F0010323
:1030D400DBB2002B04D040210198FFF782FE03E00D
:1030E40040210198FFF773FE00BF03B05DF804FBB5
:1030F40000B583B001900091009B03F00103002B05
:1031040003D00198FFF7B4FE02E00198FFF7B9FE7F
:10311400009B03F00203002B03D00198FFF7BAFED3
:1031240002E00198FFF7BFFE00BF03B05DF804FBA7
:1031340000B587B00390029101920093019B1B6834
:10314400002B0AD0019B1B681846FFF7C3FE0346F9
:1031540083F00103DBB2002B0ED1019B9B68002B93
:1031640011D0019B9B681846FFF7B4FE034683F019
:103174000103DBB2002B06D0029B00225A771023F6
:103184000593059B79E0029B002283F82120029B92
:10319400002283F82220019B1968019B1B791A469F
:1031A4000398FFF741FE019B9968019B1B7B1A461C
:1031B4000398FFF74BFE4FF48C710398FFF7E0FD83
:1031C40000990398FFF794FF009B03F00803002B7A
:1031D40003D110210398FFF7C5FD009B03F00803FA
:1031E400002B21D04FF4A6710398FFF7C9FD019B72
:1031F4001A79029B83F82120019B1A7B029B83F896
:103204002220019B1B68002219460398FFF70CFE3D
:10321400019B9B68002219460398FFF717FE4FF4A1
:1032240000210398FFF7D3FD029B1B68002B15D1E7
:1032340000BF4FF48C710398FFF7B7FD034683F08A
:103244000103DBB2002BF4D1029B9B7FFF2B11D037
:10325400029B9B7F1846FFF75FFE0BE0009B03F089
:103264000403002B0CBF01230023DBB2194603988F
:10327400FFF724FF00230593059B184607B05DF86C
:1032840004FB000010B586B0039002910192039BE9
:103294005B791A461346DB0013449B00364A1344F9
:1032A4000593059B1B7F002B04D1344940F2572022
:1032B400FEF78BF9029B1B68002B08D1029B1B793C
:1032C400002B04D02D494FF41670FEF77EF9029BB3
:1032D4009B68002B08D1029B1B7B002B04D0274941
:1032E40040F25920FEF771F900230493059B5B7F9C
:1032F400DBB2002B03D011230493049B39E0059B1C
:103304001B68002B07D0019B03F01403002B02D190
:10331400059B01225A77059B029A03F10C0413467C
:103324000FCB84E80F00059A92F823306FF3000363
:1033340082F82330059A92F823306FF3410382F820
:103344002330059A92F823306FF3820382F82330F6
:10335400059B9B7FFF2B04D0059B9B7F1846FFF7A3
:10336400EFFD039B1868019B029A0599FFF7E0FEA5
:103374000346184606B010BDEC0500207079000025
:1033840000B583B0019000914FF400210198FFF73C
:1033940032FD0346002B3DD04FF4A6710198FFF790
:1033A40004FD0346002B35D04FF4A6710198FFF7B6
:1033B400E7FC4FF48C710198FFF7E2FC019BD3F812
:1033C4004835002B04D021494FF42B70FEF7FDF84B
:1033D400009B93F821301A46019BC3F84825019BB2
:1033E400D3F83835002B04D0184940F2AF20FEF74B
:1033F400ECF8009B93F822301A46019BC3F8382559
:103404004FF400210198FFF7ECFC10210198FFF71D
:10341400A9FC18E04FF48C710198FFF7C6FC034631
:10342400002B10D04FF48C710198FFF7A9FC009B7E
:103434001B68002B04D1054940F2BE20FEF7C5F8F5
:103444000098FFF71CFE03B05DF804FB70790000E0
:1034540000B583B0044B019301990448FFF790FF32
:1034640000BF03B05DF804FBEC0500200030004011
:1034740084B001900B46ADF80230BDF80230019AD9
:10348400134400221A60BDF80230019A13441B68E9
:103494000393039B00BF04B0704782B001900B46B6
:1034A400ADF80230BDF80230019A13441B68002BBA
:1034B40014BF01230023DBB2184602B0704782B068
:1034C40001900091019BD3F80423009B1340002B2F
:1034D40014BF01230023DBB2184602B0704782B048
:1034E40001900091019B009AC3F8082300BF02B029
:1034F400704784B00190019BD3F880340393019BFF
:10350400039AC3F88024039B184604B0704782B022
:103514000190019BD3F81835DBB2184602B070470E
:1035240082B001900B468DF803309DF80320019B77
:10353400C3F81C2500BF02B0704782B001900B464F
:103544008DF803309DF80330019A134401221A6068
:1035540000BF02B0704784B001900B46ADF8023052
:10356400BDF80230019A134400221A60BDF80230FB
:10357400019A13441B680393039B00BF04B0704774
:1035840082B001900B46ADF80230BDF80230019ACA
:1035940013441B68002B14BF01230023DBB218461D
:1035A40002B0704782B001900091019BD3F80022D1
:1035B400009BDB431A40019BC3F8002200BF02B00A
:1035C400704784B00190019BD3F880340393019B2E
:1035D400039AC3F88024039B184604B0704782B052
:1035E4000190019BD3F84C35184602B0704782B065
:1035F4000190019BD3F83C35184602B0704700B5E2
:1036040085B0019000914FF48E710198FFF730FF5F
:10361400009B9B68009A928A92B213441B788DF89F
:103624000F30009B9B8A9BB201339AB2009B9A8213
:103634009DF80F3019460198FFF772FF00BF05B0DF
:103644005DF804FB10B582B001900091009BDB7D16
:10365400002B08D14FF484710198FFF709FF0198FA
:10366400FFF755FF16E04FF484710198FFF700FF50
:10367400009BDB68009A527ED2B29C180198FFF737
:1036840046FF03462370009B5B7EDBB20133DAB254
:10369400009B5A7602B010BD00B589B003900B466A
:1036A40001928DF80B3001238DF810309DF80B300A
:1036B4008DF81830019B0593039B5B68039A11688E
:1036C40004AA1046984700BF09B05DF804FB00B592
:1036D40087B001900B468DF8033000238DF8083035
:1036E4009DF803308DF81030019B9B680393019B78
:1036F40000229A75019B5B68019A116802AA104620
:10370400984700BF07B05DF804FB00B589B001908D
:1037140000914FF400710198FFF7D1FE0346002B8E
:1037240039D04FF492710198FFF7B7FE0346002B8E
:1037340031D04FF492710198FFF79AFE4FF4017162
:103744000198FFF7CCFE009B9B7E83F00103DBB264
:10375400002B03D004210198FFF7EFFE02238DF81C
:1037640008300198FFF7C5FE03460593009BDB7DF7
:103774008DF81030009BDB680393009B0022DA7500
:10378400009B00221A76009B5B68009A116802AACB
:103794001046984756E004210198FFF790FE03462F
:1037A400002B4FD04FF484710198FFF776FE034647
:1037B400002B47D000990198FFF744FF009BDA7D66
:1037C400009B5B7EDBB29A423CD1009B1B7E002BAC
:1037D4001CD0009BDB680793009B5B7E8DF81B303D
:1037E400009B1A7E009BDA75009B1A69009BDA60C5
:1037F400009B00221A76009B00225A769DF81B300B
:10380400079A19460098FFF747FF1BE0009B9B7E31
:1038140083F00103DBB2002B03D004210198FFF7EE
:103824008CFE4FF401710198FFF759FE009B0022B2
:10383400DA75009B5B7ED9B2009BDB681A46009860
:10384400FFF72AFF4FF48E710198FFF726FE034617
:10385400002B1BD0009B9B8A9AB2009B9B7D9BB242
:103864009A4204D200990198FFF7C9FE0EE04FF482
:103874008E710198FFF7FCFD009B9B7D002B05D00A
:10388400009B9B7D19460098FFF721FF4FF4A2711E
:103894000198FFF702FE0346002B1CD04FF4A271DF
:1038A4000198FFF7E5FD009B9B7E002B03D00021D0
:1038B4000198FFF742FE009BDB7D002B0BD0009BA1
:1038C4000022DA75009B5B7ED9B2009BDB681A4646
:1038D4000098FFF7E1FE00BF09B05DF804FB00B5F6
:1038E40089B0019000914FF492710198FFF748FE5E
:1038F4000346002B24D04FF492710198FFF72BFE5E
:1039040002238DF808300198FFF75BFE0346059308
:103914000198FFF76CFE0346DBB28DF81030009B74
:10392400DB680393009B0022DA75009B00221A7661
:10393400009B5B68009A116802AA1046984741E010
:103944004FF488710198FFF71BFE0346002B39D012
:103954004FF488710198FFF7FEFD0198FFF747FEC9
:1039640003468DF81F30009BDB7D9DF81F209A4293
:1039740028D1009B1B7E002B19D0009BDB6806938B
:1039840020210198FFF70EFE009B1A7E009BDA753A
:10399400009B1A69009BDA60009B00221A769DF84E
:1039A4001F30069A19460098FFF776FE0AE0009B3E
:1039B4000022DA75009BDA689DF81F3019460098DA
:1039C400FFF76AFE4FF4A2710198FFF7D9FD034691
:1039D400002B16D04FF4A2710198FFF7BCFD009B99
:1039E400DB7D002B0DD0009B0022DA750198FFF7D8
:1039F400FEFD0346D9B2009BDB681A460098FFF728
:103A04004BFE4FF490710198FFF7BAFD0346002B6B
:103A140011D04FF490710198FFF79DFD009B9B7DA1
:103A2400002B08D00198FFF7DAFD0346DBB21946F4
:103A34000098FFF74CFE00BF09B05DF804FB0000DE
:103A440008B5074B1B7F002B04D005490548FFF739
:103A540046FF03E002490348FFF757FE00BF08BDD5
:103A6400100600200020004082B001900B468DF823
:103A740003309DF80330019A134401221A6000BFF9
:103A840002B0704784B001900B46ADF80230BDF827
:103A94000230019A134400221A60BDF80230019AE0
:103AA40013441B680393039B00BF04B0704782B0A8
:103AB40001900B46ADF80230BDF80230019A134470
:103AC4001B68002B14BF01230023DBB2184602B08D
:103AD400704782B001900091019BD3F80022009BB3
:103AE4001A43019BC3F8002200BF02B0704782B0A2
:103AF40001900091019BD3F80022009BDB431A4004
:103B0400019BC3F8002200BF02B0704782B001904D
:103B14000091019B009AC3F8042300BF02B07047D0
:103B240082B001900091019B009AC3F8082300BF62
:103B340002B0704782B001900091019BD3F8042336
:103B4400009B1340002B14BF01230023DBB2184653
:103B540002B0704782B001900B468DF80330019B90
:103B6400D3F8043523F003029DF8033003F0030374
:103B74001A43019BC3F8042500BF02B0704782B00A
:103B840001900B468DF80330019BD3F8083523F0E0
:103B940003029DF8033003F003031A43019BC3F8A7
:103BA400082500BF02B0704782B001900B468DF823
:103BB4000330019BD3F8103523F00F029DF8033036
:103BC40003F00F031A43019BC3F8102500BF02B092
:103BD400704784B003900B4601928DF80B309DF82A
:103BE4000B20039B02F5A872019943F8221000BF31
:103BF40004B0704782B00190019B9BB250339BB2DA
:103C04009B009BB2184602B0704782B001904FF4FB
:103C14008032019B02FA03F3184602B0704784B065
:103C24000190019B1B0B8DF80F309DF90F30184646
:103C340004B0704710B588B0039002910192039BC1
:103C44001B791A4613465B0013449B008E4A1344A7
:103C54000793039B1B688D4A934208D0039B1B6800
:103C64008A4A934203D18A494B20FDF7AEFC039B59
:103C74001B68884A934208D0039B1B68854A934279
:103C840003D183494C20FDF7A0FC039B1B68824AA7
:103C9400934208D0039B1B687F4A934203D17C491B
:103CA4004D20FDF792FC039B1B687C4A934208D08D
:103CB400039B1B68794A934203D175494F20FDF752
:103CC40084FC039B1B68764A934208D0039B1B68C1
:103CD400734A934203D16E495220FDF776FC029B4E
:103CE400002B03D16A495720FDF76FFC079B1B7A11
:103CF400002B03D008230593059BC2E0019B002BF6
:103D040003D107230593059BBBE0039B1B685F4A14
:103D140093420FD1029B9B78012B64D0029B9B782A
:103D2400002B60D0029B9B78022B5CD0029B9B787B
:103D3400032B58D0039B1B68564A93420FD1029B16
:103D44009B78012B4FD0029B9B78002B4BD0029B7E
:103D54009B78022B47D0029B9B78032B43D0039B79
:103D64001B684D4A93420FD1029B9B78012B3AD09A
:103D7400029B9B78002B36D0029B9B78022B32D07F
:103D8400029B9B78032B2ED0039B1B68434A9342D0
:103D94000FD1029B9B78012B25D0029B9B78002B93
:103DA40021D0029B9B78022B1DD0029B9B78032B76
:103DB40019D0039B1B683A4A93420FD1029B9B780C
:103DC400012B10D0029B9B78002B0CD0029B9B787C
:103DD400022B08D0029B9B78032B04D02C49702023
:103DE400FDF7F3FB00E000BF079B019A1A60029BFA
:103DF4005A68079B5A6000238DF81B3010E0039B20
:103E04001C689DF81B301846FFF7F4FE034619465C
:103E14002046FFF737FE9DF81B3001338DF81B3029
:103E2400039B5B799DF81B209A42E8D3039B1B6894
:103E34001846FFF7F4FE03461A46029BDB78194640
:103E44001046FEF74DFF039B1A68029B5B781946E8
:103E54001046FFF77FFE039B1A68029B9B78194666
:103E64001046FFF78CFE039B1A68029B1B781946C9
:103E74001046FFF799FE079B01221A72002305934F
:103E8400059B184608B010BD300600200080004095
:103E9400847A00000090004000A0004000A001408F
:103EA40000B0014000B583B00190019B1B79194615
:103EB400114A0B465B000B449B00134408331B78E8
:103EC400012B03D00D49A020FDF77FFB019B1B684C
:103ED40000211846FFF7C8FD019B1B791946064AC5
:103EE4000B465B000B449B001344083302221A70F8
:103EF40000BF03B05DF804FB30060020847A0000A4
:103F040000B587B0039001921A460B468DF80B302A
:103F140013468DF80A309DF80B301846FFF775FEEE
:103F240005909DF80A30002B06D0039B1B68059969
:103F34001846FFF7EBFD05E0039B1B68059918463F
:103F4400FFF7EEFD039B1B689DF80B10019A1846C2
:103F5400FFF73FFE00BF07B05DF804FB00B585B076
:103F6400039001921A460B468DF80B301346ADF8B8
:103F74000830039B18689DF80B304FF480729A4008
:103F84009DF80B30012101FA03F313431946FFF79F
:103F9400AEFD039B1B68BDF8082011461846FFF7C9
:103FA40098FD9DF818309DF80B10019A0398FFF7BF
:103FB400A7FF00BF05B05DF804FB00B587B0039010
:103FC400029113468DF8073000238DF8173030E046
:103FD4009DF817301846FFF70DFE0346ADF8143070
:103FE4009DF817301846FFF710FE0490BDF8143002
:103FF40019460398FFF75BFD0346002B14D0049980
:104004000398FFF797FD0346002B0DD0BDF814303D
:1040140019460398FFF736FD029B1B68029A516804
:10402400BDF81420104698479DF8173001338DF8D9
:1040340017309DF817209DF807309A42C8D300BF67
:1040440007B05DF804FB000008B5042202490348E8
:10405400FFF7B3FF00BF08BD30060020008000401A
:1040640008B5042202490348FFF7A7FF00BF08BDB3
:104074003C0600200090004008B504220249034891
:10408400FFF79BFF00BF08BD4806002000A00040CA
:1040940008B5062202490348FFF78FFF00BF08BD99
:1040A4005406002000A0014008B506220249034836
:1040B400FFF783FF00BF08BD6006002000B0014089
:1040C40000B583B00346ADF80630BDF80630184697
:1040D40000F026F803461B68012B0CBF01230023C4
:1040E400DBB2184603B05DF804FB00B585B00346A7
:1040F400ADF80630BDF80630184600F011F8034656
:104104001A4600231360BDF80630184600F008F87C
:1041140003461B680393039B00BF05B05DF804FBD3
:1041240082B00346ADF80630BDF8063003F1804393
:1041340003F5C043184602B07047000082B00190F6
:10414400034A019BC2F8043300BF02B0704700BFAA
:104154000060004082B00190034BD3F80423019B1C
:104164001340184602B070470060004082B00190CE
:10417400084A019B03F5A27352F82330054943F022
:104184000102019B03F5A27341F8232000BF02B092
:10419400704700BF0060004084B003900291134652
:1041A4008DF80730144A039B03F5A27352F82330A9
:1041B400114923F4473323F44073039A02F5A2729E
:1041C40041F822300C4A039B03F5A27352F82320D2
:1041D400029B1B0203F4F8519DF807301B0403F4FF
:1041E40040330B4304491A43039B03F5A27341F87C
:1041F400232000BF04B070470060004082B00190EB
:10420400054A019B03F5A27352F823301B0A03F0FD
:104214001F03184602B070470060004082B001904E
:10422400064A019B03F5A27352F823301B0C03F0DA
:104234000303DBB2184602B0704700BF00600040C1
:1042440000B583B00190019B1B681F2B04D905495D
:104254004FF4E870FDF7B9F94FF0A043184603B0E6
:104264005DF804FBE87A000000B585B001900846CB
:1042740011461A4603468DF803300B468DF802307A
:1042840013468DF8013001AB1846FFF7D9FF0390B0
:104294009DF803209DF802305B001A439DF801301D
:1042A4009B001A439DF818301B0242EA03019DF853
:1042B4001C301B04019A1943039B02F5E07243F876
:1042C400221000BF05B05DF804FB00B585B0039073
:1042D4000B468DF80B309DF80B200023019300232F
:1042E40000931346002200210398FFF7BDFF00BF8F
:1042F40005B05DF804FB00B585B0019001AB18462C
:10430400FFF79EFF0390019A039B02F5E07253F8B6
:10431400223023F002030293019A039B02F5E07218
:10432400029943F8221000BF05B05DF804FB00B504
:1043340085B001900B468DF8033001AB1846FFF7AA
:104344007FFF0390019A039B02F5E07253F8223039
:10435400019A23F44031039B02F5E07243F82210E2
:10436400019A039B02F5E07253F822309DF8032072
:1043740012041146019A1943039B02F5E07243F8B3
:10438400221000BF05B05DF804FB00B585B00190B4
:1043940001AB1846FFF754FF0390039800F020F890
:1043A4000246019B22FA03F303F00103184605B009
:1043B4005DF804FB00B585B0019001AB1846FFF72A
:1043C4003FFF0390019A039B02F5E07253F82230F9
:1043D4001B0C03F00303DBB2184605B05DF804FBC5
:1043E40082B00190019BD3F81035184602B0704793
:1043F40000B587B00390029101924FF0A04304935B
:10440400039A029B1344012B04D912494FF43A70C6
:10441400FDF7DBF8039B059311E0059B9B0006AABF
:10442400134453F8083C1846FFF7DAFF0246019B91
:104434001A60019B04330193059B01330593039A8E
:10444400029B1344059A9A42E7D300BF07B05DF874
:1044540004FB00BFE87A000084B001900091009B47
:104464000393019BDB080293019B03F00703019371
:104474000122019B02FA03F30399029A0A44127877
:104484001340184604B0704784B001900091009B1B
:104494000393019BDB080293019B03F00703019341
:1044A400039A029B13441B785AB20121019B01FA1F
:1044B40003F35BB2134359B2039A029B1344CAB287
:1044C4001A7000BF04B0704782B001900C4A019B7F
:1044D4001344243393F90030002B09DB084A019B71
:1044E4001344243393F90030072B01DC012300E04B
:1044F400002303F00103DBB2184602B0704700BF8B
:104504006C06002082B00190064A019B13442433B8
:1045140093F90030072BCCBF01230023DBB21846EC
:1045240002B070476C06002082B00190064A019BDD
:104534001344243393F90030DB43DBB2DB09DBB2F1
:10454400184602B0704700BF6C06002084B0039088
:10455400029101928DF80330029B59B20E4A039BDB
:10456400134424330A461A700B49029B019A41F8FA
:1045740023209DF8033083F00103DBB2002B08D025
:10458400029B083B039A51B2034A13440A4683F838
:10459400442000BF04B070476C06002082B0019034
:1045A400044A019B13442433FF221A7000BF02B053
:1045B400704700BF6C06002082B00190044A019B42
:1045C4001344243393F90030184602B0704700BFF7
:1045D4006C06002082B00190034A019B52F82330FC
:1045E400184602B0704700BF6C06002000B589B0C1
:1045F4000390029113468DF80730FF238DF81F3086
:104604009DF80730002B01D0002300E00823059318
:104614009DF80730002B01D0082300E00923049300
:10462400059B069314E00F4A069B52F82330B3F11E
:10463400FF3F0AD19DF80730029A06990398FFF7C5
:1046440085FF069B8DF81F3006E0069B0133069319
:10465400069A049B9A42E6D39DF91F30184609B086
:104664005DF804FB6C06002082B003468DF8073029
:104674009DF80730094A4FF0FF3142F823109DF8A6
:104684000730072B07D99DF80730083B034A13442A
:10469400FF2283F8442000BF02B070476C0600205C
:1046A40000B583B0214B93F84530002B03D0082389
:1046B4000093009B36E000238DF8073009E09DF855
:1046C40007301846FFF76AFF9DF8073001338DF86D
:1046D40007309DF807301F2BF1D900238DF80730E0
:1046E40009E09DF807301846FFF7BEFF9DF8073034
:1046F40001338DF807309DF80730082BF1D90721D5
:104704000620FEF7EDFA4FF4BE70FFF7EEFC4FF013
:104714000040FFF713FD054B012283F845200023D9
:104724000093009B184603B05DF804FB6C06002060
:1047340000B587B0039002910192039B1F2B04D90B
:104744002B4940F2F710FCF740FF00230593039830
:10475400FFF7EAFE0346002B02D00823059341E04D
:10476400029BDB781A4601990398FFF73FFF034643
:104774008DF813309DF91330B3F1FF3F30D0029B15
:104784009B78002B03D00398FFF7B5FD05E0029B4F
:104794005B7819460398FFF798FD029BDB78002BA2
:1047A40008D09DF91300029B1B781A460399FFF762
:1047B400F3FC17E09DF91330083B0E4A134493F9B8
:1047C4004410029B1B789B015AB29DF91330083B9D
:1047D4000A4351B2074A13440A4683F8442001E0CD
:1047E40004230593059B184607B05DF804FB00BF3E
:1047F400287B00006C06002000B589B001900B46B0
:104804008DF80330019B1F2B04D93D4940F225202C
:10481400FCF7DBFE0198FFF787FE0346002B04D16B
:10482400374940F22620FCF7D0FE0198FFF76AFED4
:104834000346002B2FD00198FFF7BEFE0346083B2A
:10484400304A134493F944308DF80F309DF80F30FB
:104854009B098DF80E309DF80E30032B0BD1019877
:10486400FFF793FD0346002B01D0032300E002234E
:104874008DF81F3008E09DF80E30012B01D1022382
:1048840000E003238DF81F309DF81F30194601986E
:10489400FFF74DFD30E00198FFF716FE0346002BAD
:1048A4002AD00198FFF788FE03460693069B9BB225
:1048B40040339BB29B00ADF81630069B1846FFF7B9
:1048C40055FCBDF816301846FFF70FFC9DF8033071
:1048D400002B11D00198FFF76FFE03461846FFF72F
:1048E40079FE0490049B002B06D00122069B02FA59
:1048F40003F31846FFF722FC00BF09B05DF804FB80
:10490400287B00006C06002000B595B000231093AE
:10491400002303934FF48073ADF84C3001231293BA
:1049240000230F9321E0BDF84C301846FFF7C8FB75
:104934000346002B0ED01298FFF70CFC0346002B05
:1049440008D0BDF84C301846FFF7CFFB109A129BE5
:1049540013431093129B5B001293BDF84C30043345
:10496400ADF84C300F9B01330F930F9B072BDAD913
:104974004FF4BE70FFF7A4FB0346002B0DD04FF499
:10498400BE70FFF7B2FB109B43F00043109303ABE0
:104994001A4601210020FFF72BFD109BDBB2002BF0
:1049A40029D00123129300230F9321E0129A109B24
:1049B4001340002B16D00F98FFF720FC0D900F9892
:1049C400FFF72CFC03468DF833300F98FFF702FEF7
:1049D4000B900B9B002B05D09DF833200B9B1146AD
:1049E4000D989847129B5B0012930F9B01330F9312
:1049F4000F9B072BDAD9109B002B80F2EE8000234B
:104A04008DF84F3000230293002311930AE0119B89
:104A14009B0014AA13444FF0FF3243F84C2C119B13
:104A240001331193119B002BF1D000238DF84F30EB
:104A340000230F9378E06B4A0F9B1344443393F99C
:104A440000308DF82B309DF82B3023F0C0030993F0
:104A5400644A0F9B1344443393F90030B3F1FF3F8E
:104A64005FD001AB19460998FFF7F6FC0346002B0B
:104A740057D09DF82B309B098DF823300998FFF708
:104A84009BFD03461846FFF7A5FD0790079B002BE7
:104A940003D19DF82330032B43D19DF82330032BFE
:104AA40004D102AB19460998FFF7EEFC0998FFF709
:104AB40081FC03468DF81B3003AB19460998FFF7B8
:104AC400CBFC0590059B002B03D09DF81B30022BDB
:104AD40006D0059B002B24D19DF81B30032B20D13D
:104AE4009DF82330032B13D19DF81B30022B01D1E9
:104AF400032300E002238DF813309DF81330194688
:104B04000998FFF714FC9DF84F3001338DF84F30AE
:104B1400079B002B05D09DF82320079B114609987D
:104B240098470F9B01330F930F9B002B83D09DF865
:104B34004F30002B4CD001238DF83B306B461A4686
:104B440001210020FFF754FC0023119314E0119B72
:104B54009B0014AA134453F8502C119B9B0014A9D6
:104B64000B4453F8443C9A4203D000238DF83B3065
:104B740005E0119B01331193119B002BE7D09DF8A5
:104B84003B30002B03D000238DF84F3020E000236E
:104B940011931AE0119B9B0014AA134453F8502C50
:104BA400119B9B0014A90B4443F8442C119B9B00BC
:104BB40014AA134453F8482C119B9B0014A90B44CA
:104BC40043F84C2C119B01331193119B002BE1D022
:104BD4009DF84F30002B7FF428AF00BF15B05DF86F
:104BE40004FB00BF6C06002000B583B00190019B5C
:104BF4001B681F2B04D905494FF4E870FCF7E5FC4A
:104C04004FF0A043184603B05DF804FB907B00000E
:104C140000B585B00190084611461A4603468DF842
:104C240003300B468DF8023013468DF8013001AB8A
:104C34001846FFF7D9FF03909DF803209DF8023032
:104C44005B001A439DF801309B001A439DF818300D
:104C54001B0242EA03019DF81C301B04019A19430C
:104C6400039B02F5E07243F8221000BF05B05DF823
:104C740004FB00B585B00390002301930023009347
:104C84000023012201210398FFF7C2FF00BF05B0F2
:104C94005DF804FB00B585B003900B468DF80B302E
:104CA4009DF80B2000230193002300931346002258
:104CB40000210398FFF7ACFF00BF05B05DF804FBCB
:104CC40000B585B0019001AB1846FFF78DFF039046
:104CD400019B012202FA03F31946039800F035F808
:104CE40000BF05B05DF804FB00B585B0019001ABD1
:104CF4001846FFF779FF0390019B012202FA03F3A0
:104D04001946039800F02BF800BF05B05DF804FBCA
:104D140000B585B0019001AB1846FFF765FF03901D
:104D2400039800F00AF80246019B22FA03F303F009
:104D34000103184605B05DF804FB82B00190019BA5
:104D4400D3F81035184602B0704782B00190009134
:104D5400019B009AC3F8082500BF02B0704782B0D7
:104D640001900091019B009AC3F80C2500BF02B08A
:104D74007047000000B589B0FA23079306238DF825
:104D84000C3000238DF80D3001238DF80E300723ED
:104D94008DF80F300023049303AB114A19461148D0
:104DA400FEF748FF0690069B0593059B002B05D054
:104DB4000D4A4FF49A710598FCF7DCFA012300932D
:104DC4000123079A00210748FFF7C8F80548FFF7B1
:104DD40069F8064801F032F800BF09B05DF804FB39
:104DE400F54D0000D0980000C87B0000247C000032
:104DF40000B58DB003460291ADF80E30AF4B1B8861
:104E040001339AB2AD4B1A80AD4B1B680133AC4AE7
:104E14001360AA4B1B88AB4AA2FB03121209FA21A6
:104E240001FB02F29B1A9BB2002B23D1A64B1B78E9
:104E3400002B1FD0A54B1B78002B0DD0A44B1B7847
:104E4400A4490022DB000B4493E8030000F0FCFAC1
:104E54009E4B00221A700DE09D4B1B789D494FF626
:104E6400FF72DB000B4493E8030000F0EDFA974B6C
:104E740001221A70984B1B78002B00F0E980964BA6
:104E840000221A70954B1B78002B03D0012B00F0E5
:104E94008880DEE0924B4FF6FF7293E8030000F047
:104EA400D3FA904B1B68904A90491846FDF7BEFB15
:104EB40003460693069B002B05D08D4A40F25511FC
:104EC4000698FCF757FA00230B930BE089490B9BD8
:104ED4000022DB000B4493E8030000F0B5FA0B9BBF
:104EE40001330B930B9B032BF0DD834B1B68019366
:104EF4006C23009312234FF6FF7200217F4800F0C9
:104F04004FFA00230A930CE07D490A9B4FF6FF7287
:104F1400DB000B4493E8030000F096FA0A9B01338C
:104F24000A930A9B032BEFDD734B1B6801936C23DD
:104F34000093762300224FF6FF71724800F030FA96
:104F4400634B1B780133DAB2614B1A70604B1B78E8
:104F540003F00303DAB25E4B1A705D4B1B78002B2F
:104F64000CD05B4B1B78013B5A494FF6FF72DB00B8
:104F74000B4493E8030000F067FA07E0554B4FF643
:104F8400FF72183393E8030000F05EFA504B1B786D
:104F940050490022DB000B4493E8030000F054FA6C
:104FA40057E0524B4FF6FF7293E8030000F04CFABF
:104FB4004C4B1B684C4A4A491846FDF737FB0346DD
:104FC4000793079B002B05D0494A40F26F110798BD
:104FD400FCF7D0F9002309930CE04649099B4FF6EE
:104FE400FF72DB000B4493E8030000F02DFA099BE9
:104FF40001330993099B032BEFDD3F4B1B6801939E
:105004006C230093122300224FF6FF713B4800F0FB
:10501400C7F9002308930BE03949089B0022DB0001
:105024000B4493E8030000F00FFA089B0133089344
:10503400089B032BF0DD304B1B6801936C2300931A
:1050440076234FF6FF7200212E4800F0A9F900E004
:1050540000BF00238DF81730184B1B88194AA2FB98
:10506400031292094FF47A7101FB02F29B1A9BB26C
:10507400002B40F0E780114B00221A80224B1B6862
:105084000133214A1360204B1B6819461F4800F066
:10509400D5FE1F4B1B78002B00F0D4801D4B1A78D3
:1050A4001D4B1A701D4B1B78002B39D0194B1B78E4
:1050B4000133DAB2174B1A7038E000BFB40600208F
:1050C400BC060020D34D6210C2060020C306002097
:1050D400CA060020A8980000C6060020C5060020C5
:1050E40070000020A40000203C8F00006800002015
:1050F400C87B000058980000A000002040980000E1
:105104008898000048980000B8060020387C000009
:10511400C00600208400002098000020C106002062
:105124005E4B1B78013BDAB25C4B1A705C4B01227C
:105134001A705A4B1B783A2B3FD1584B30221A70B5
:10514400584B1A78584B1A70564B1B780133DAB205
:10515400544B1A70554B01221A70524B1B78362B44
:105164006ED1504B30221A70514B1A78514B1A7031
:105174004F4B1B780133DAB24D4B1A704E4B012260
:105184001A704B4B1B783A2B5AD1494B30221A7068
:105194004A4B1A784A4B1A70484B1B780133DAB2DF
:1051A400464B1A70474B01221A70444B1B783A2B1A
:1051B40046D1424B30221A7042E0384B1B782F2BD9
:1051C4003ED1364B39221A70364B1A78364B1A7048
:1051D400344B1B78013BDAB2324B1A70334B012249
:1051E4001A70304B1B782F2B2AD12E4B35221A7074
:1051F400304B1A782F4B1A702D4B1B78013BDAB2C7
:105204002B4B1A702C4B01221A70294B1B782F2B15
:1052140016D1274B39221A70284B1A78284B1A704A
:10522400264B1B78013BDAB2244B1A70254B012222
:105234001A70224B1B782F2B02D1204B39221A7063
:1052440000F020F9204B1B7883F00103DBB2002B24
:105254001DD01E4B1B8801339AB21C4B1A801B4B6A
:105264001B88192B16D91A4B1B780133DAB2184B49
:105274001A70174B1B7803F00103DAB2144B1A703F
:10528400144B01221A70104B01221A7002E00F4BCA
:1052940000221A8000BF0DB05DF804FB84000020DA
:1052A4008900002080000020940000208800002055
:1052B4007C0000209000002087000020780000205F
:1052C4008C000020860000208A000020C8060020F0
:1052D400C5060020C606002000B585B003468DF83B
:1052E4000730124B1B681846FCF788FC0390039B9D
:1052F400002B05D00E4A40F2E1110398FCF73AF86E
:105304000A4B1B6803211846FCF724FE002000F01A
:1053140081F89DF80730184600F004FC4FF6FF7042
:1053240000F078F800BF05B05DF804FBA40000208D
:10533400C87B000000B589B00590084611461A469E
:105344000346ADF812300B46ADF810301346ADF8F5
:105354000E30BDF81030ADF81830BDF80E30ADF891
:105364001A300D4B1868BDF8122006A901230193C9
:105374000A9B0093059BFCF783FE0790079B002B79
:1053840005D0064A40F2EB110798FBF7F3FF00BF84
:1053940009B05DF804FB00BFA4000020C87B000036
:1053A40010B58AB00790084611461A460346ADF870
:1053B4001A300B46ADF818301346ADF81630BDF868
:1053C4001630ADF82030BDF83030ADF822300F4B38
:1053D4001868BDF81A20BDF8184008A901230293E3
:1053E4000D9B0193079B00932346FDF737F8034673
:1053F4000993099B002B05D0054A40F2F111099845
:10540400FBF7B8FF00BF0AB010BD00BFA400002026
:10541400C87B000000B585B00346ADF80630094AE4
:1054240002AB92E8030083E80300BDF806301A4695
:1054340002AB93E8030000F007F800BF05B05DF885
:1054440004FB00BF4C7C000030B587B004AB83E89C
:1054540003001346ADF80E30094B1B68DC68BDF839
:105464001000BDF81210BDF81420BDF81650BDF898
:105474000E3000932B46A04700BF07B030BD00BFDD
:10548400A400002010B582B0934B1B78002B40D0B1
:10549400914B00221A70914B1B78332B03D08F4B06
:1054A4001B78312B12D18E4B1B7883F00103DBB2B6
:1054B400002B0BD08B4B1B68DC684FF6FF730093FB
:1054C4004B231322A4212820A04716E0834B1B78EA
:1054D400352B03D0814B1B78312B0ED1804B1B789D
:1054E400002B0AD07F4B1B68DC684FF6FF730093D8
:1054F4004B231322A4212820A0477B4B1B68019334
:10550400A42300930A2300224FF6FF717348FFF788
:1055140047FF764B1B78002B4DD0744B00221A703A
:10552400734B1B78332B03D0714B1B78312B12D167
:105534006B4B1B7883F00103DBB2002B0BD0694B60
:105544001B68DC684FF6FF7300934B231322A421DE
:105554005C20A04716E0664B1B78352B03D0644BC8
:105564001B78312B0ED15E4B1B78002B0AD05D4B80
:105574001B68DC684FF6FF7300934B231322A421AE
:105584005C20A047584B1B680193A42300933E233F
:1055940000224FF6FF715648FFF702FF544B1B7869
:1055A400342B08D1504B1B680093A4236F22002195
:1055B4005048FFF7BFFE504B1B78002B40D04E4B9A
:1055C40000221A704D4B1B78332B03D04B4B1B78A6
:1055D400312B12D1424B1B7883F00103DBB2002B39
:1055E4000BD0404B1B68DC684FF6FF7300934B23D2
:1055F4001322A421A020A04716E0404B1B78352B92
:1056040003D03E4B1B78312B0ED1354B1B78002B2E
:105614000AD0344B1B68DC684FF6FF7300934B23AE
:105624001322A421A020A0472F4B1B680193A4237D
:105634000093822300224FF6FF713048FFF7B0FE3B
:105644002F4B1B78002B40D02D4B00221A702D4B72
:105654001B78332B03D02B4B1B78312B12D1204BCF
:105664001B7883F00103DBB2002B0BD01D4B1B68AE
:10567400DC684FF6FF7300934B231322A421D4203C
:10568400A04716E01F4B1B78352B03D01D4B1B780E
:10569400312B0ED1124B1B78002B0AD0114B1B68F7
:1056A400DC684FF6FF7300934B231322A421D4200C
:1056B400A0470D4B1B680193A4230093B62300223B
:1056C4004FF6FF710F48FFF76BFE0F4800F0B6FB73
:1056D40000BF02B010BD00BF86000020780000208B
:1056E400C1060020A40000209C00002087000020A8
:1056F4007C0000203C9800008800002080000020EE
:105704008900002084000020547C000000B599B07A
:10571400AB4B00221A60AB4A0DAB07CA03C31A8015
:10572400A94B1B680DA900221846FCF7CDFA13906B
:10573400139B002B05D0A54A40F286211398FBF752
:1057440019FEA34A0AAB07CA03C31A80002317939E
:105754001DE09D4B1B680AA900221846FCF7B4FA09
:105764001090109B002B05D0984A40F28A21109883
:10577400FBF700FEBDF82C3032339BB2ADF82C3071
:10578400BDF82C30ADF82830179B01331793179BC5
:10579400022BDEDD8F4B002293E80300FFF754FE5B
:1057A4008D4B002293E80300FFF74EFE8B4B4FF620
:1057B400FF7293E80300FFF747FE894B1B680193D0
:1057C4006C23009312234FF6FF7200218548FFF7E4
:1057D400E7FD834B1B6801936C230093762300221F
:1057E4004FF6FF718048FFF7DBFD804A09AB126872
:1057F400114619800233120C1A707D4B1B6809A8DC
:1058040001930A2300930A2348F27E624FF6FF7144
:10581400FFF7C6FD774A08AB1268114619800233B8
:10582400120C1A700023169343E09DF82030312B9C
:1058340009D19DF82130372B05D130238DF8203044
:1058440039238DF821306C4A169B32F81320169BAD
:105854009BB2194689000B44194688001946034631
:105864000B445B009BB21A3399B2644B1B6808A8C3
:105874000193C82300930B464FF6FF71FFF790FD89
:105884009DF821300533DBB28DF821309DF82130AD
:10589400392B0BD99DF821300A3BDBB28DF821302E
:1058A4009DF820300133DBB28DF82030169B013394
:1058B4001693169B032BB8DD514A06AB92E80300FE
:1058C40083E80300404B1B6806A94E4A1846FCF7C0
:1058D400ADFE03461293129B002B05D03B4A40F2C7
:1058E400AE211298FBF746FD474A04AB92E8030049
:1058F40083E80300002315930EE0002204AB93E831
:105904000300FFF7A1FDBDF8103012339BB2ADF8D0
:105914001030159B01331593159B032BEDDD3B4A8A
:1059240003AB1268114619800233120C1A7000235B
:10593400149325E0304A149B32F81320149B9BB235
:10594400194689000B4419468800194603460B443E
:105954005B009BB21E3399B22D4B1B6803A80193C5
:10596400A02300930B464FF6FF71FFF719FD9DF836
:105974000D300133DBB28DF80D30149B01331493D9
:10598400149B032BD6DD104B1B68224A2249184670
:10599400FCF74CFE03461193119B002B05D00B4AD8
:1059A40040F2BE211198FBF7E5FC1C4B01221A7052
:1059B4001B4B01221A7000BF19B05DF804FB00BF35
:1059C400BC060020E87C0000A4000020C87B000086
:1059D400F47C000050980000789800008098000043
:1059E400A00000204098000048980000007D0000BE
:1059F400A8000020047D0000C8980000AC0000202E
:105A0400087D00001C7D0000107D0000187D000052
:105A1400B00000203C8F000068000020C306002076
:105A2400C206002000B583B00020FBF7A1F8019066
:105A3400019B002B05D00C4A40F2C7210198FBF7CB
:105A440099FCFBF71CF8FFF795F900F00FF801201B
:105A5400FFF742FCFFF75AFE012000F063F8012132
:105A64001020FEF7C9FEFEE7C87B000000B585B034
:105A7400FEF716FE0390039B0293029B002B05D0B6
:105A84001A4A40F2E2210298FBF774FC1220FFF755
:105A9400F0F8012000F046F803211020FFF7FAF88F
:105AA40003210D20FFF7F6F803238DF800300323BC
:105AB4008DF8013000238DF8023000238DF8033077
:105AC4006B460B4A19461020FEF732FE0390039BE7
:105AD4000193019B002B05D0044A40F2F221019866
